{
  "transactions": [
    {
      "hash": "0x05a13403e3eb3fc7eb15ba5250507d740301330473e701532fe4057f7c7fb0b2",
      "transactionType": "CALL",
      "contractName": null,
      "contractAddress": "0x75906b5631cd7cd2191b75b9aa3999a3a190a3a6",
      "function": "mintNFT(string)",
      "arguments": [
        "https://ipfs.io/ipfs/bafkreiapa3cd3iosjjibgl3fkgf33jmzn2ea2iwzlonksfnggi5pjbh3ry"
      ],
      "transaction": {
        "from": "0x06843d2ef37cea86077223d0a06fd926c6b134ed",
        "to": "0x75906b5631cd7cd2191b75b9aa3999a3a190a3a6",
        "gas": "0x7c3f6",
        "value": "0x0",
        "input": "0xfb37e8830000000000000000000000000000000000000000000000000000000000000020000000000000000000000000000000000000000000000000000000000000005068747470733a2f2f697066732e696f2f697066732f6261666b72656961706133636433696f736a6a6962676c33666b676633336a6d7a6e3265613269777a6c6f6e6b73666e67676935706a626833727900000000000000000000000000000000",
        "nonce": "0x4",
        "chainId": "0x1789"
      },
      "additionalContracts": [],
      "isFixedGasLimit": false
    }
  ],
  "receipts": [
    {
      "status": "0x1",
      "cumulativeGasUsed": "0x73c60",
      "logs": [
        {
          "address": "0x75906b5631cd7cd2191b75b9aa3999a3a190a3a6",
          "topics": [
            "0xddf252ad1be2c89b69c2b068fc378daa952ba7f163c4a11628f55a4df523b3ef",
            "0x0000000000000000000000000000000000000000000000000000000000000000",
            "0x00000000000000000000000006843d2ef37cea86077223d0a06fd926c6b134ed",
            "0x0000000000000000000000000000000000000000000000000000000000000001"
          ],
          "data": "0x",
          "blockHash": "0x54baf7fe3501148eefc82aa45d3a91e4eba612a75c6d00eff37229908e508aec",
          "blockNumber": "0xb1086",
          "transactionHash": "0x05a13403e3eb3fc7eb15ba5250507d740301330473e701532fe4057f7c7fb0b2",
          "transactionIndex": "0x0",
          "logIndex": "0x0",
          "removed": false
        },
        {
          "address": "0x75906b5631cd7cd2191b75b9aa3999a3a190a3a6",
          "topics": [
            "0xf8e1a15aba9398e019f0b49df1a4fde98ee17ae345cb5f6b5e2c27f5033e8ce7"
          ],
          "data": "0x0000000000000000000000000000000000000000000000000000000000000001",
          "blockHash": "0x54baf7fe3501148eefc82aa45d3a91e4eba612a75c6d00eff37229908e508aec",
          "blockNumber": "0xb1086",
          "transactionHash": "0x05a13403e3eb3fc7eb15ba5250507d740301330473e701532fe4057f7c7fb0b2",
          "transactionIndex": "0x0",
          "logIndex": "0x1",
          "removed": false
        },
        {
          "address": "0x75906b5631cd7cd2191b75b9aa3999a3a190a3a6",
          "topics": [
            "0xe7cd4ce7f2a465edc730269a1305e8a48bad821e8fb7e152ec413829c01a53c4",
            "0x00000000000000000000000006843d2ef37cea86077223d0a06fd926c6b134ed",
            "0x0000000000000000000000000000000000000000000000000000000000000001"
          ],
          "data": "0x0000000000000000000000000000000000000000000000000000000000000020000000000000000000000000000000000000000000000000000000000000012d646174613a6170706c69636174696f6e2f6a736f6e3b6261736536342c65794a755957316c496a6f67496b3168626d52686247456751574e685a4756746553424f526c51694c434a6b5a584e6a636d6c7764476c766269493649434a4249474e6c636e52705a6d6c6a5958526c49453547564342306147463049484e306457526c626e5167595778795a57466b6553426a62323177624756305a5751676447686c49474e7664584a7a5a534973496d6c745957646c583356796243493649434a6f64485277637a6f764c326c775a6e4d75615738766158426d6379396959575a72636d5670595842684d324e6b4d326c766332707161574a6e62444e6d6132646d4d7a4e71625870754d6d56684d6d6c33656d7876626d747a5a6d356e5a326b316347706961444e7965534a3900000000000000000000000000000000000000",
          "blockHash": "0x54baf7fe3501148eefc82aa45d3a91e4eba612a75c6d00eff37229908e508aec",
          "blockNumber": "0xb1086",
          "transactionHash": "0x05a13403e3eb3fc7eb15ba5250507d740301330473e701532fe4057f7c7fb0b2",
          "transactionIndex": "0x0",
          "logIndex": "0x2",
          "removed": false
        }
      ],
      "logsBloom": "0x00000000000000000000000000000000000000000000000000000000000000000000000000000000000000000000000000000000000000000000000002040200000000000000000000000008000000000000000010042000000000000000000000000000020000000000000000000800000000000000000000000010000040000000000000000000000000000000000000000001000000000000000000000000000000000000000000000000000000002000400000000000000000000000008020000002000000000000000000000000000008000000000000000000000060000000000000000000200000000000000000000000000000000000000000000000",
      "type": "0x2",
      "transactionHash": "0x05a13403e3eb3fc7eb15ba5250507d740301330473e701532fe4057f7c7fb0b2",
      "transactionIndex": "0x0",
      "blockHash": "0x54baf7fe3501148eefc82aa45d3a91e4eba612a75c6d00eff37229908e508aec",
      "blockNumber": "0xb1086",
      "gasUsed": "0x73c60",
      "effectiveGasPrice": "0x1dcd6501",
      "from": "0x06843d2ef37cea86077223d0a06fd926c6b134ed",
      "to": "0x75906b5631cd7cd2191b75b9aa3999a3a190a3a6",
      "contractAddress": null
    }
  ],
  "libraries": [],
  "pending": [],
  "returns": {},
  "timestamp": 1740146405,
  "chain": 6025,
  "commit": "380c4ed"
}