{
  "transactions": [
    {
      "hash": "0xc7ca89b608229185ada366f1ca228e46d053be885221fe40f1feb96fde7195fc",
      "transactionType": "CALL",
      "contractName": null,
      "contractAddress": "0xa1134a87548b239c542137ea228990722e2e835e",
      "function": "mintNFT(string)",
      "arguments": [
        "https://ipfs.io/ipfs/bafkreigxnhhmoeyg5vjfcrlr4yluostuxuivpehn77i5uzt4uc4e5zdp2i"
      ],
      "transaction": {
        "from": "0x06843d2ef37cea86077223d0a06fd926c6b134ed",
        "to": "0xa1134a87548b239c542137ea228990722e2e835e",
        "gas": "0x7c3f6",
        "value": "0x0",
        "input": "0xfb37e8830000000000000000000000000000000000000000000000000000000000000020000000000000000000000000000000000000000000000000000000000000005068747470733a2f2f697066732e696f2f697066732f6261666b72656967786e68686d6f65796735766a6663726c7234796c756f737475787569767065686e37376935757a743475633465357a6470326900000000000000000000000000000000",
        "nonce": "0x6",
        "chainId": "0x1789"
      },
      "additionalContracts": [],
      "isFixedGasLimit": false
    }
  ],
  "receipts": [
    {
      "status": "0x1",
      "cumulativeGasUsed": "0x73c60",
      "logs": [
        {
          "address": "0xa1134a87548b239c542137ea228990722e2e835e",
          "topics": [
            "0xddf252ad1be2c89b69c2b068fc378daa952ba7f163c4a11628f55a4df523b3ef",
            "0x0000000000000000000000000000000000000000000000000000000000000000",
            "0x00000000000000000000000006843d2ef37cea86077223d0a06fd926c6b134ed",
            "0x0000000000000000000000000000000000000000000000000000000000000001"
          ],
          "data": "0x",
          "blockHash": "0x23ce9b39d0f74e86f6ce99a8822bc072552ea1ffcb871ff97c2eddd512b86dbf",
          "blockNumber": "0xb10a7",
          "transactionHash": "0xc7ca89b608229185ada366f1ca228e46d053be885221fe40f1feb96fde7195fc",
          "transactionIndex": "0x0",
          "logIndex": "0x0",
          "removed": false
        },
        {
          "address": "0xa1134a87548b239c542137ea228990722e2e835e",
          "topics": [
            "0xf8e1a15aba9398e019f0b49df1a4fde98ee17ae345cb5f6b5e2c27f5033e8ce7"
          ],
          "data": "0x0000000000000000000000000000000000000000000000000000000000000001",
          "blockHash": "0x23ce9b39d0f74e86f6ce99a8822bc072552ea1ffcb871ff97c2eddd512b86dbf",
          "blockNumber": "0xb10a7",
          "transactionHash": "0xc7ca89b608229185ada366f1ca228e46d053be885221fe40f1feb96fde7195fc",
          "transactionIndex": "0x0",
          "logIndex": "0x1",
          "removed": false
        },
        {
          "address": "0xa1134a87548b239c542137ea228990722e2e835e",
          "topics": [
            "0xe7cd4ce7f2a465edc730269a1305e8a48bad821e8fb7e152ec413829c01a53c4",
            "0x00000000000000000000000006843d2ef37cea86077223d0a06fd926c6b134ed",
            "0x0000000000000000000000000000000000000000000000000000000000000001"
          ],
          "data": "0x0000000000000000000000000000000000000000000000000000000000000020000000000000000000000000000000000000000000000000000000000000012d646174613a6170706c69636174696f6e2f6a736f6e3b6261736536342c65794a755957316c496a6f67496b3168626d52686247456751574e685a4756746553424f526c51694c434a6b5a584e6a636d6c7764476c766269493649434a4249474e6c636e52705a6d6c6a5958526c49453547564342306147463049484e306457526c626e5167595778795a57466b6553426a62323177624756305a5751676447686c49474e7664584a7a5a534973496d6c745957646c583356796243493649434a6f64485277637a6f764c326c775a6e4d75615738766158426d6379396959575a72636d56705a33687561476874623256355a7a5632616d5a6a636d78794e486c736457397a6448563464576c326347566f626a633361545631656e513064574d305a5456365a48417961534a3900000000000000000000000000000000000000",
          "blockHash": "0x23ce9b39d0f74e86f6ce99a8822bc072552ea1ffcb871ff97c2eddd512b86dbf",
          "blockNumber": "0xb10a7",
          "transactionHash": "0xc7ca89b608229185ada366f1ca228e46d053be885221fe40f1feb96fde7195fc",
          "transactionIndex": "0x0",
          "logIndex": "0x2",
          "removed": false
        }
      ],
      "logsBloom": "0x00000000000000000000000000000000000000000000200000000000000000000000000000000000000000000000000000000000000000000000000002040200000000000000000000000008000000000000000000042000000000000000000000000000020000000000000000000800000000000000000000000010000000000000000000000000000000000000000000000001000000000000000000000000000000000000000000000000000000002000000010000000000000000000008020000002000000000000000000000000000008000000000000000000000060000000000000000000200000000000000000000000008000000000000000000000",
      "type": "0x2",
      "transactionHash": "0xc7ca89b608229185ada366f1ca228e46d053be885221fe40f1feb96fde7195fc",
      "transactionIndex": "0x0",
      "blockHash": "0x23ce9b39d0f74e86f6ce99a8822bc072552ea1ffcb871ff97c2eddd512b86dbf",
      "blockNumber": "0xb10a7",
      "gasUsed": "0x73c60",
      "effectiveGasPrice": "0x1dcd6501",
      "from": "0x06843d2ef37cea86077223d0a06fd926c6b134ed",
      "to": "0xa1134a87548b239c542137ea228990722e2e835e",
      "contractAddress": null
    }
  ],
  "libraries": [],
  "pending": [],
  "returns": {},
  "timestamp": 1740146602,
  "chain": 6025,
  "commit": "380c4ed"
}